:020000040800F2
:1000000050430020AD750008A9740008AB740008C7
:10001000AD740008AF740008B1740008000000005F
:10002000000000000000000000000000B3740008A1
:10003000B574000800000000B7740008B974000827
:10004000C9750008CD750008D1750008D575000880
:10005000D9750008DD750008E1750008E575000830
:10006000E9750008ED750008F1750008F5750008E0
:10007000F9750008FD75000801760008057600088E
:10008000C7740008097600080D760008117600088C
:1000900015760008197600081D76000821760008FC
:1000A00025760008297600082D76000831760008AC
:1000B000454F000835760008397600083D7600087F
:1000C0004176000845760008497600084D7600081C
:1000D0005176000855760008597600085D760008CC
:1000E0006176000865760008697600086D7600087C
:1000F0007176000875760008797600087D7600082C
:100100008176000885760008897600088D760008DB
:10011000917600089576000899760008634F0008EC
:10012000C97400089D760008A1760008A57600082D
:10013000A9760008AD760008B1760008B57600080B
:10014000B9760008BD760008C1760008CF740008B3
:10015000C5760008C9760008CD760008D17600087B
:10016000D5760008D9760008DD760008E17600082B
:10017000E5760008E9760008ED760008000000004A
:10018000F1760008F57600084FF4E072104402683A
:10019000914203D343681A44914202D380680028F5
:1001A000F5D17047DFF85C07016891B94FF48031F1
:1001B00081604FF4805141604FF0FF31C1600161B7
:1001C0000421DFF844274161C2F8BC11DFF83C1775
:1001D00001600120704701F1080313F0070305D007
:1001E00001F10803C3F1080303F007031944D21A0D
:1001F0008161C26042F001034B60114428234B60CF
:10020000DFF800170969C16170472DE9F84F06460C
:1002100001F1080010F0070008BF884607D001F17F
:100220000800C0F1080000F0070001EB000802F12F
:10023000080010F0070006D002F10800C0F1080025
:1002400000F0070002441546A5EB0800A0EB0309E7
:1002500008EB030B43F00300C8F80400AB4528BFCC
:1002600001F00CFA2879C00758BF01F007FAB9F17C
:10027000100F38BF01F002FAB069854209D1F06869
:100280004844F060C6F818B040F00100CBF8040014
:1002900070E1706985420BD1B0684844B060C6F81F
:1002A00014B040F00101CBF804104BF8000061E1FC
:1002B000686800F00301012940F0AF80C008C00069
:1002C0000190C00820283BD2D5F808A0EF68009024
:1002D000BD4208BF01F0D2F9554508BF01F0CEF983
:1002E00068680099C008C000B0EBC10F18BF01F0EA
:1002F000C5F9009806EBC00000F128018A4508D036
:1003000031698A45C0F08480DAF80C10A94240F0C7
:100310007F80574506D1009A30680121914088437B
:10032000306077E02830874205D0306987426FD34C
:10033000B868A8426CD1CAF80C70C7F808A069E088
:10034000EF68D5F818A0AF420CD0A8683169884290
:1003500023D3C168A94204BFB968A9421DD1C760AF
:10036000B8601CE005F11400076837B905F110000A
:100370000768A7B101E00846076807F114010A6899
:10038000002A02BF07F110010A68002AF3D131697F
:10039000884202D30021016001E001F06FF9BAF157
:1003A000000F37D0E86906EB80004FF498710844DD
:1003B00001688D4208D10760A7B9EA697068012118
:1003C00091408843706025E03069824508D3DAF8AF
:1003D0001000A84214BFCAF81470CAF8107001E0E7
:1003E00001F04CF9B7B13069874211D3C7F818A0B2
:1003F000296929B1814226BF39618F6101F03EF937
:10040000686938B13169884202D37861876101E057
:1004100001F034F9019805448144686840084000BF
:1004200068604FEAD90549F00100CBF804004BF8A9
:100430000990202D23D206EBC50000F12807BA460B
:10044000B9F1100F38BF01F019F9306820FA05F141
:10045000C90704D40121A9400843306006E0B86808
:10046000316988422CBF824601F008F9C7F808B00C
:10047000CAF80CB0CBF808A0CBF80C707AE05FEAB1
:10048000192108BF002023D0B1F5803F28BF1F20CD
:100490001ED2A1F58070000C00F008008140A1F58B
:1004A0008052120C02F004029140A1F580431B0C13
:1004B000C0F10E0003F00203801AC01A994000EB4D
:1004C000D130C11D29FA01F202F0010101EB400017
:1004D00006EB80014FF498721144CBF81C00002207
:1004E000CBF81420CBF81020726822FA00F3DB0757
:1004F00007D4012303FA00F010437060C1F800B084
:100500001DE009681F281DBF4008C0F1190009FA45
:1005100000F0484600E011464A68D208D2004A4539
:1005200014D0C20F01EB820202F1100340001A68DE
:10053000002AF0D1306983421AD3C3F800B0CBF857
:100540001810CBF80CB0CBF808B013E0326988680B
:10055000914228BF90420BD3C0F80CB0C1F808B04C
:10056000CBF80800CBF80C100020CBF8180001E005
:1005700001F084F808F10800BDE8E68F2DE9FA4D96
:100580000546DFF88003006882B008B9FFF70AFE6D
:10059000DFF870030299806841182F31401E21EA6C
:1005A00000000299814280F0A9814FF4D8716E1841
:1005B000B16839B132688018824280F09F818142EF
:1005C000C0F09C8101F062F800281EBF0446D0F8FC
:1005D000008014F1010F00F091813068716840448F
:1005E0008142306038BF01467160A86980BB2869CC
:1005F00008B1844200D22C610020F0613461C6F859
:10060000148005F12801BF48006868624FF0FF3090
:1006100028620020C960896001F108024A610A610C
:10062000801C10312028F5D3B748854203D1A8F1AA
:10063000280221462AE055F8040CC00805EBC0004A
:10064000A0F1080104EB0800401AA0F128021DE007
:100650004FF4E0702918084600E08068D0B10268C5
:1006600043681A449442F8D1027B120712D4AA6953
:1006700003689A420ED347683B449A420AD208EB79
:1006800007014160E868A96908EB00022846FFF706
:10069000A2FD1DE128698442084638BF2C6104EBA5
:1006A000080100E0806880B102688A42FAD1017BCB
:1006B00009070AD404604168414441602146029B15
:1006C000284604B0BDE8F04D9FE5AF69394628469D
:1006D000FFF75AFD4FF0000B016840680844019095
:1006E000273810F0070101990EBF0020C0F1080063
:1006F00000F0070008442F3807F11001884234BF8A
:1007000000970090009804F1080100F1180A11F018
:100710000701A8F1280005D004F10801C1F1080182
:1007200001F00701401A2144A961E86040F001028C
:100730004A6008442822426072480069E8610098D3
:10074000083010F0070018BF00F098FF00991B2038
:1007500048604FF4E0712944B1E80C50009808302B
:10076000A0E80C503461C6F81480C6F81CB000989C
:100770000830B061019801E00AF1040A0721CAF8C3
:1007800004100BF1010B0AF108018142F4D3BBF113
:10079000020FB8BF00F072FF0098B84200F09880D6
:1007A000C01B3918C4084A68520852004A6040F019
:1007B000010179603850202C20D205EBC40101F1F1
:1007C0002806B046102838BF00F058FF286820FAE5
:1007D00004F1C90704D40121A1400843286006E0C0
:1007E000B068296988422CBF804600F047FFB76097
:1007F000C8F80C70C7F80880FE6069E0010A23D0D1
:10080000B1F5803F28BF1F211ED2A1F58072120CC6
:1008100002F008029140A1F580531B0C03F0040381
:100820009940A1F58044240CC2F10E0204F00204A8
:10083000D21A121BA14002EBD131CA1D20FA02F3D9
:1008400003F0010202EB410105EB81024FF49873C2
:100850001A44F96100237B613B616B6823FA01F460
:10086000E40705D4012088401843686017601CE045
:1008700012681F291DBF4908C1F1190100FA01F1D1
:10088000014600E01A465368DB08DB00834210D0C3
:10089000CB0F02EB830303F1100449002368002B04
:1008A000F0D12869844211D32760BA61FF60BF602C
:1008B0000EE0296990688A4228BF884206D3C76043
:1008C0009760B860FA600020B86101E000F0D6FEE1
:1008D000E8680299814211D2401AE860A969029A37
:1008E0000A44AA6140F001005060029840F0030001
:1008F000486004B001F10800BDE8F08D002004B0AC
:10090000BDE8F08D849F0020649B00206859883CDE
:100910002DE9F84F0446002689465FEA1920C9F1FF
:10092000000B08BF002123D0B0F5803F28BF1F2156
:100930001ED2A0F58071090C01F008018840A0F5D5
:100940008052120C02F004029040A0F580431B0C70
:10095000C1F10E0103F00203891AC91A984001EB94
:10096000D030C11D29FA01F202F0010101EB400172
:1009700004EB8100D0F8300118B31F290FBF4A469D
:100980004A08C2F1190209FA02F2002300E05200FB
:100990004568ED08ED00A5EB09055D4503D25FEA6A
:1009A000050B06460BD04569D70F00EB8700002DDD
:1009B00000691CBF85422B460028E8D11846B8BB09
:1009C000C6BB01208840400041420843616808409E
:1009D00000F05D8141420840401E010B01F0100112
:1009E000C840420902F00802D040830803F0040323
:1009F000D840450805F002055118E8405918C0F3E1
:100A0000400729443944F840401804EB8000D0F8EE
:100A100030010DE008464168C908C900A1EB090191
:100A200059453CBF8B46064601690029F2D1406911
:100A30000028F0D1002E00F02A81A068A0EB090068
:100A4000834580F0248120698642C0F01E81706851
:100A5000C00809EB0B08C000404518BF00F00EFEAF
:100A600006EB0905AE4280F01081F768D6F818A0B1
:100A7000B7420CD0B0682169884223D3C168B14223
:100A800004BFB968B1421DD1C760B8601CE006F16F
:100A90001400076837B906F110000768A7B101E034
:100AA0000846076807F114010A68002A02BF07F127
:100AB00010010A68002AF3D12169884202D300217B
:100AC000016001E000F0DAFDBAF1000F39D0F06901
:100AD00004EB80004FF49871084401688E4209D1FC
:100AE0000760380014D1F2696068012191408843A1
:100AF000606026E02069824508D3DAF81000B04231
:100B000014BFCAF81470CAF8107001E000F0B6FD06
:100B1000BFB12069874212D3C7F818A0306930B13D
:100B20002169884226BF3861876100F0A7FD70699E
:100B300038B12169884202D37861876101E000F011
:100B40009DFDBBF1100F09D248F00300706006EB69
:100B50000800416841F00101416095E049F003005F
:100B600070604BF0010068604FEADB0045F80BB0A5
:100B700020281DD204EBC00101F12807216821FAC9
:100B800000F2D207BB4605D4012202FA00F0084366
:100B9000206006E0B868216988422CBF834600F0D7
:100BA0006DFDBD60CBF80C50C5F808B0EF606BE090
:100BB0005FEA1B2023D0B0F5803F28BF1F201ED244
:100BC000A0F58071090C01F008018840A0F5805261
:100BD000120C02F004029040A0F580431B0CC1F1FE
:100BE0000E0103F00203891AC91A984001EBD030B4
:100BF000C11D2BFA01F202F0010101EB400004EBF0
:100C000080014FF498721144E86100226A612A6100
:100C1000626822FA00F3DB0706D4012303FA00F02E
:100C2000104360600D601CE009681F281DBF40086C
:100C3000C0F119000BFA00F0584600E011464A686E
:100C4000D208D2005A4510D0C20F01EB820202F145
:100C5000100340001A68002AF0D12069834211D3A2
:100C60001D60A961ED60AD600EE022698868914267
:100C700028BF904206D3C5608D60A860E96000205F
:100C8000A86101E000F0FAFC08E100F0F7FC02E1E5
:100C90002DE9F84F04468846606841420840401EEE
:100CA000010B01F01001C840420902F00802D040D7
:100CB000830803F00403D840450805F002055118E5
:100CC000E8405918C0F3400629447118F040401814
:100CD00004EB8000D0F830014168C908C90006461D
:100CE000A1EB080A09E008464168C908C900A1EB60
:100CF000080151453CBF8A46064601690029F2D1E8
:100D000040690028F0D120698642C0F0C280706836
:100D1000C00808EB0A09C000484518BF00F0AEFC47
:100D200006EB080B5E4580F0B480F768B569B74202
:100D30000CD0B0682169884223D3C168B14204BF96
:100D4000B968B1421DD1C760B8601CE006F114005B
:100D5000076837B906F110000768A7B101E0084637
:100D6000076807F114010A68002A02BF07F11001A1
:100D70000A68002AF3D12169884202D30021016068
:100D800001E000F07BFC002D35D0F06904EB800021
:100D90004FF49871084401688E4209D10760380009
:100DA00011D1F2696068012191408843606022E0BE
:100DB0002069854205D32869B04214BF6F612F6155
:100DC00001E000F05BFCB7B12069874211D3BD613F
:100DD000306930B12169884226BF3861876100F0EF
:100DE0004DFC706938B12169884202D3786187610E
:100DF00001E000F043FCBAF1100F09D249F0030002
:100E0000706006EB0900416841F0010141603FE07C
:100E100048F0030070604AF00100CBF804004BF882
:100E20000AA0D4F808804FEAD805202D28BF00F08A
:100E300025FCB8F1000F27D0D4F81490009504EBEE
:100E4000C50000F128052F46B8F1100F38BF00F09B
:100E500015FC2068009920FA01F2D10705D4009A08
:100E6000012191400843206006E0A868216988427A
:100E70002CBF074600F002FCC5F80890C7F80C909C
:100E8000C9F80870C9F80C50C4F808A0C4F814B028
:100E900004E000F0F3FB0020BDE8F28F06F108004B
:100EA000BDE8F28F2DE9F04F83B00546C046C0463D
:100EB000F52DDFF8C04780F002810B2D31BF1027E0
:100EC00005F10B00C708FF002068FE08F04010F095
:100ED000030F42D0C04300F00100861904EBC600A6
:100EE00000F12808F700D8F808506868C008C0006A
:100EF000B84218BF00F0C2FBD5F80890454508BFBE
:100F000000F0BCFB4D4508BF00F0B8FB6868C008A6
:100F1000C000B84218BF00F0B1FBC84505D1206839
:100F20000121B140884320600DE02069814508D34C
:100F3000D9F80C00A84204D1C8F80890C9F80C8070
:100F400001E000F09BFB47F003006860E8190835FA
:100F5000416841F001014160F9E0A168B94280F0C7
:100F6000C080002800F0A280012505FA06F14900A2
:100F70004A42B0401143084041420840401E010B24
:100F800001F01001C840420902F00802D040830875
:100F900003F00403D840460806F002065118F0405A
:100FA0005918C0F340087118414420FA08F000EBCA
:100FB000010804EBC80000F128094FEAC80AD9F873
:100FC00008607068C008C000504518BF00F056FBAC
:100FD000D6F808B04E4508BF00F050FB5E4508BF8C
:100FE00000F04CFB7068C008C000504518BF00F00E
:100FF00045FBD94505D1206805FA08F188432060F2
:101000000DE02069834508D3DBF80C00B04204D121
:10101000C9F808B0CBF80C9001E000F02FFB47F0C6
:1010200003007060AAEB0708F019019048F0010076
:1010300001994860019840F80880A7684FEAD70AEC
:10104000BAF1200F28BF00F019FB47B3CDF800A07C
:1010500004EBCA00D4F8149000F1280AD346102FEC
:1010600038BF00F00BFB2068009920FA01F2D1078D
:1010700005D4009905FA01F10843206007E0DAF889
:101080000800216988422CBF834600F0F7FACAF8AD
:101090000890CBF80C90C9F808B0C9F80CA0C4F8B7
:1010A000088006F108050198606150E06068C0B3EF
:1010B00039462046FFF7ECFD050012D047E015F158
:1010C000400F28BF4FF0FF370BD205F10B00C708C8
:1010D0006068FF0028B139462046FFF719FC05007B
:1010E00035D1A068B8421CD3C11B626910290AD34C
:1010F000D0196061A16041F001034360415047F0A5
:10110000030050600AE00021A160616140F003012A
:1011100051601044416841F00101416002F108054D
:1011200015E0E06887420DD2C01BA169E060CA19D2
:10113000A26140F00100506001F1080547F0030092
:10114000486004E039462046FFF718FA0546C046D5
:10115000C046284603B0BDE8F08F00B970472DE9BE
:10116000F047A0F10804C046C046DFF808552869DA
:101170008442C0F07982616801F00302012A00F024
:101180007382CA084FEAC208CA0704EB080937D4B9
:10119000226811F0030F00F0698251420C4484422E
:1011A0009044C0F0618269698C4200F0D980D60811
:1011B000202E70D2D4F80CA0A768544508BF00F0C8
:1011C0005DFABC4208BF00F059FA6068C008C00070
:1011D000B0EBC60F18BF00F051FA05EBC60000F1E6
:1011E00028018F4205D029698F4251D3F968A14265
:1011F0004ED1BA453DD128680121B14088432860CD
:101200004C4580F03182D9F80400C10740F12C82AE
:10121000810700F17D81A969894540F0B680E868C1
:10122000AC614044E86040F00101616069698C4252
:1012300002D100216961A960E969814280F01682CA
:10124000DFF83404006808B9FEF7ACFFA96900298B
:1012500000F00C82E868292824BF2846FEF794FF96
:10126000E869E968884280F001824FF0FF30E86168
:10127000FCE12830824506D02869824508D3DAF897
:101280000800A04204D1C7F80CA0CAF80870B7E75C
:1012900000F0F4F9B4E7E768A669A7420BD0A168AB
:1012A000814222D3C868A04204BFB868A0421CD1C2
:1012B000CF60B9601BE004F114010F6837B904F185
:1012C00010010F689FB101E011460F6807F1140289
:1012D0001368002B02BF07F110021368002BF3D133
:1012E000814202D30020086001E000F0C7F9002E1F
:1012F00086D0E06905EB80004FF4987108440168DE
:101300008C4209D10760380011D1E2696868012177
:1013100091408843686073E72869864205D3306945
:10132000A04214BF7761376101E000F0A7F9002FF8
:101330003FF466AF28698742AAD3BE61216929B10B
:10134000814226BF39618F6100F098F960690028F9
:101350003FF456AF296988429AD3786187614FE795
:1013600099F8040000F0030003287FF449AFC5F8A2
:101370000880D9F8040040084000C9F8040048F08B
:101380000100606044F8088070E16969894508D10E
:10139000A8686C614044A86040F001016160205081
:1013A00064E1C008C0004FEAD00ABAF1200F8044BF
:1013B00037D2D9F80C70D9F80860B94508BF00F0E9
:1013C0005DF9B14508BF00F059F9D9F80400C0082B
:1013D000C000B0EBCA0F18BF00F050F905EBCA000F
:1013E00000F128018E4207D029698E42C0F0838027
:1013F000F168494540F07F80B74206D12868012155
:1014000001FA0AF18843286077E02830874205D046
:10141000286987426FD3B86848456CD1F760BE60D1
:101420006BE0D9F80C70D9F818604F450DD0D9F899
:1014300008002969884223D3C168494504BFB968B7
:1014400049451DD1C760B8601CE009F11400076868
:1014500037B909F110000768A7B101E0084607682D
:1014600007F114010A68002A02BF07F110010A6897
:10147000002AF3D12969884202D30021016001E0EA
:1014800000F0FCF8002E38D0D9F81C0005EB8000E5
:101490004FF498710844016889450AD10760380003
:1014A00012D1D9F81C2068680121914088436860F6
:1014B00023E02869864205D33069484514BF776127
:1014C000376101E000F0DAF8BFB12869874212D332
:1014D000BE61D9F8101029B1814226BF39618F61F0
:1014E00000F0CCF8D9F8140038B12969884202D349
:1014F0007861876101E000F0C1F848F001006060A8
:1015000044F80880686984420BD1C5F80880ADE0D2
:1015100040084000C9F8040048F00100606044F849
:1015200008804FEAD807202F22D205EBC70000F130
:1015300028094E46B8F1100F38BF00F09FF8286810
:1015400020FA07F1C90704D40121B94008432860F3
:1015500007E0D9F80800296988422CBF064600F048
:101560008DF8C9F80840F460A660C4F80C907DE0DE
:101570005FEA182008BF002123D0B0F5803F28BFC4
:101580001F211ED2A0F58071090C01F008018840CE
:10159000A0F58052120C02F004029040A0F58043A6
:1015A0001B0CC1F10E0103F00203891AC91A9840FD
:1015B00001EBD030C11D28FA01F202F0010101EB6C
:1015C000400105EB81004FF49872104400226261E3
:1015D0002261E1616A6822FA01F3DB0706D4012384
:1015E00003FA01F11143696004601CE000681F29DF
:1015F0001DBF4908C1F1190108FA01F1414600E097
:1016000010464268D208D200424510D0CA0F00EB03
:10161000820202F1100349001A68002AF0D12969F8
:101620008B4211D31C60A061E460A4600EE02A69C3
:101630008168904228BF914206D3CC608460E0600C
:10164000A1600020A06101E000F018F8286A401EA7
:1016500028620BD1D5F8C80100E080680028FCD1D1
:101660004FF0FF30286201E000F008F8C046C046A5
:10167000BDE8F087649B0020849F0020012000F0DB
:101680001BB80268531C0360117070470749086853
:1016900008B1002070470648C008C000086005492E
:1016A000C908C900091A0160704700BFA49F002043
:1016B000574300205083002080B500F007F8024A0D
:1016C00011001820ABBEFBE72600020080B500F039
:1016D00033F802000023DB431068984204D0110065
:1016E0000220ABBE002010605068984204D0111D4B
:1016F0000220ABBE0020506001BD000010B584B0D8
:10170000040000F019F8A100421810680021C94334
:1017100088420DD107A00090002C01D1002000E0EC
:10172000042001900320029069460120ABBE1060A6
:1017300004B010BD3A7474000048704744020020A1
:101740002DE9F04F82460FF24860A5B015461E46BF
:10175000D0E90023CDE91223002004910D900DF172
:1017600050086FF0004900E03D440020ADF8020051
:1017700012AB4FF0FF3229460DF1020001F0A5F83F
:101780000746012F04DA2878471EBF41FF43FF0FA9
:10179000BDF8020025280CBFA7F1010BBB46BBF129
:1017A000010F0EDB2C4614F8011B0498D0470028CB
:1017B000049000F0F3800D98401CBBF1010B0D90DC
:1017C000F1D1BDF80200252807D10020079008902C
:1017D00009900A900B900C9005E00028C4D10D9858
:1017E000DEE240F0010015F8011F2029F9D023297D
:1017F0000DD02B2904D02D2906D030290AD00CE099
:1018000040F0020080B2EEE740F00400FAE740F05A
:101810000800F7E740F01000F4E72A290ED13168FC
:10182000316051F8042B3160002A0F9204D55142E7
:1018300040F004000F9180B26D1C11E000210F9167
:1018400009E00F99494505D001EB810302EB430103
:1018500030390F916D1C2A78A2F130010A29F0D39A
:1018600029782E2903D04FF0FF310E911DE015F895
:10187000011F2A2907D1316831606D1C51F8042BF2
:1018800031600E9211E000210E9109E00E99494558
:1018900005D001EB810302EB430130390E916D1C41
:1018A0002A78A2F130010A29F0D3ADF840000FF2F6
:1018B000E840297801F01AF808B115F8010B8DF805
:1018C00042009DF84200682802BF297868296220FA
:1018D00005D06C2804BF28786C2803D171208DF8BE
:1018E00042006D1C14A8069015F8017BB7F1250085
:1018F0002AD01C3800F0DB80001F022840F2D7807D
:10190000133800F0FC80093800F0D180801E00F010
:101910006781401E00F03D81401E022840F2C780D2
:10192000001F00F03681401F00F09280401E00F042
:10193000E680401E35D0C01E0BD0801E00F0DF8038
:10194000C01E00F0DC806EE125208DF850000120E3
:1019500073E19DF842006C283068306014D050F874
:10196000044B306005940E9F002F04D5204600F0F4
:10197000C9FF074606E03A460021204600F0DEFF98
:1019800000B1071B089759E150F8042B306002A9F9
:10199000504600F03FFA002840F150814FF0FF30F0
:1019A000FEE131683160002251F8040B3160002102
:1019B000CDE9020114A80590DDE902019142069FDC
:1019C00008BF90424FF03C0C01D10E9AC2B100F01A
:1019D0000F033033DBB23A2BA8BF2733ACF101023F
:1019E0000009BB54944640EA017009090022914263
:1019F00008BF904204D0059A07EB0C039A42E6D345
:101A000007EB0C000590CCF13C010E980891814247
:101A100009DA401A0A904FF6EF71BDF8400008400D
:101A2000ADF840000AE1002840F108819DF840002F
:101A300000F01400102840F001810F98079A801AD6
:101A40000A9A801A401A0128C0F2F8800A90F5E03C
:101A50009DF8420062281AD0682806D06A280CD067
:101A60006C281CD0712808D019E03068306050F81C
:101A7000041B30600D980880E0E03068306050F85A
:101A8000042B30600D98C117C2E90001D6E0306820
:101A9000306050F8041B30600D980870CEE030685C
:101AA000306050F8041B30600D980860C6E0306864
:101AB000C01D20F007023260D2E900010832326016
:101AC000CDE90201002902D507982D210AE0BDF8D1
:101AD0004000810702D507982B2103E0C00705D5F8
:101AE0000798202108F80010401C079014A80799B7
:101AF00008440590394602A800F098FB9EE09DF846
:101B000042006C280DD0712818BF6A2809D13068AE
:101B1000C01D20F007023260D2E9000108323260B5
:101B200005E03168316051F8040B31600021CDE9E6
:101B300002019DF84200682803D1DDE9020180B26C
:101B40000BE0622803D1DDE90201C0B205E0742890
:101B500018BF7A2804D1DDE902010021CDE9020194
:101B60009DF84000000732D5DDE9022300208342C2
:101B700008BF82422BD047F02000782827D1079851
:101B8000302108F80010401C411C079108F8007033
:101B90001DE09DF84200314600F005F9CDE9020153
:101BA000DDE9022300218B4202DA07982D210AE0A9
:101BB000BDF84000810702D507982B2103E0C0073C
:101BC00005D50798202108F80010401C079014A89C
:101BD000079908440590394602A800F0A1FA2DE0C3
:101BE0009DF842006C2809D00120079030683060D1
:101BF00050F8041B30608DF850101FE030683060E2
:101C000001AA50F8041B3060ADF804100020ADF8B4
:101C1000060002A94FF0FF300E90504600F0FAF88F
:101C200000280BD5BAE625208DF85000012007903A
:101C3000380003D088F80170022007900F980799A8
:101C4000401A0A99401A0899401A0B99401A0999A2
:101C5000401A0C99471A9DF84000400710D42020E4
:101C6000012F8DF800000BDB3C4601236A4602A9D8
:101C7000504600F005FE00287FF490AE641EF4D1BB
:101C8000DDF81CB0BBF1000F14AC0DD014F8011B33
:101C90000498D047002804903FF480AE0D98401C73
:101CA000BBF1010B0D90F1D130208DF800000A9CA2
:101CB000012C0ADB01236A4602A9504600F0E0FD30
:101CC00000287FF46BAE641EF4D1DDF820B0059CD3
:101CD000BBF1000F0DD014F8011B0498D047002869
:101CE00004903FF45BAE0D98401CBBF1010B0D90CE
:101CF000F1D130208DF800000B9C012C0ADB012370
:101D00006A4602A9504600F0BBFD00287FF446AEAB
:101D1000641EF4D105980899DDF824B04418BBF18D
:101D2000000F0DD014F8011B0498D0470028049030
:101D30003FF434AE0D98401CBBF1010B0D90F1D176
:101D400030208DF800000C9C012C0ADB01236A4630
:101D500002A9504600F094FD00287FF41FAE641ED7
:101D6000F4D19DF8400040077FF5FFAC2020012F03
:101D70008DF80000FFF6F9AC01236A4602A950462F
:101D800000F07EFD00287FF409AE7F1EF4D1ECE464
:101D90000000000000000000686A6C747A4C0000CB
:101DA00025B0BDE8F08F622826D068281DD06A28AB
:101DB00008D06C2827D0712804D0742823D07A2822
:101DC0000CD020E00868C01D20F007000860D0E9B2
:101DD0000023083008601946104670470A680A60F8
:101DE00052F8040B0A60002170470A680A6052F832
:101DF000040B0A6000B20BE00A680A6052F8040B98
:101E00000A6040B204E00A680A6052F8040B0A60F3
:101E1000C11770472DE9F44F0D4694B0D5F830A0A6
:101E2000BAF1000F804648BF6FF0004A00F0B2FDE3
:101E3000696B401801900FF67820D0E90023CDE9B6
:101E4000022395F83800400702D40198412805D2B2
:101E500040200DF110090190002609E0FFF722F85B
:101E60005FEA0009F8D14FF0FF3056E1AAEB040A0F
:101E7000BAF1010FC0F2CE801498018802AA0DF1C8
:101E8000010000F08CFD0028044600F1DE8014986B
:101E9000008810B9641E00F1D880A245C0F2BA8053
:101EA000686901992218914280F0A2806E634042D5
:101EB000296A401AA969401A696A401AE969401AF0
:101EC000A96A461A95F83800400710D42020012E40
:101ED0008DF800000BDB374601236A462946404651
:101EE00000F0CEFC002840F0B0807F1EF4D1D5F881
:101EF00014B0BBF1000F4F460DD017F8011BA868B6
:101F0000C0470028A86000F0A080E86A401CBBF130
:101F1000010BE862F1D130208DF800002F6A012F0B
:101F20000ADB01236A462946404600F0A9FC002846
:101F300040F08B807F1EF4D1D5F818B0EF68BBF16C
:101F4000000F0CD017F8011BA868C0470028A86034
:101F50007BD0E86A401CBBF1010BE862F2D1302073
:101F60008DF800006F6A012F09DB01236A462946BC
:101F7000404600F085FC002867D17F1EF5D1E86857
:101F8000A969D5F81CB04718BBF1000F0CD017F8A1
:101F9000011BA868C0470028A86056D0E86A401C0A
:101FA000BBF1010BE862F2D130208DF80000AF6A7E
:101FB000012F09DB01236A462946404600F060FCF8
:101FC000002842D17F1EF5D195F8380040070DD585
:101FD0002020012E8DF8000008DB01236A462946E7
:101FE000404600F04DFC80BB761EF6D100266E61A7
:101FF000224668690DF10101484400F0DDFC686982
:10200000201868611498801C1490801E0088002895
:102010007FF42CAF686B6969401A296A401AA96974
:10202000401A696A401AE969401AA96AA0EB010AD4
:1020300095F83800400710D4BAF1010F0DDB544673
:10204000A8682021C047A86010B94FF0FF365DE0B6
:10205000E86A401C641EE862F2D16B694A46294670
:10206000404600F00DFC0028EFD12C6A012C0ADB61
:10207000A8683021C0470028A860E6D0E86A401C64
:10208000641EE862F4D1AB69EA682946404600F074
:10209000F7FB0028D9D16C6A012C0ADBA868302133
:1020A000C0470028A860D0D0E86A401C641EE862DF
:1020B000F4D1E868A969EB6942182946404600F066
:1020C000DFFB0028C1D1AC6A012C0ADBA8683021F3
:1020D000C0470028A860B8D0E86A401C641EE862C7
:1020E000F4D195F8380040070ED5BAF1010F0BDB9B
:1020F000A8682021C0470028A860A6D0E86A401C34
:10210000BAF1010AE862F3D16E616E6304A88145F9
:102110001CBF4846FFF721F8304615B0BDE8F08FE8
:102120002DE9F343054608462F696F2808BF0824A8
:1021300005D041F02001782914BF0A2410243C2640
:10214000D5E90023642818BF69289046994606D12E
:1021500000218B4203DAD8F1000869EB490900201D
:10216000814508BF80450CD1286B50B9082C38D167
:1021700095F83800000734D530203B2687F83B001F
:102180002FE0701E00900646404649462246E3175F
:1021900000F04EFC02F13000C0B23A2803DB9DF89B
:1021A000041051390818B855494640462246E317ED
:1021B00000F03EFC804689460020814508BF8045EE
:1021C00003D0E868B9198842DBD3082C09D195F807
:1021D0003800000705D5B85D302802D0761E3020C3
:1021E000B855B919E960C6F13C00296BA86188426D
:1021F00008DA081A28624FF6EF71288F08402887FE
:10220000BDE8F38300290ED595F8381001F01401CC
:10221000102908D1696B6A69891A2A6A891A0E1A03
:10222000012EA8BF2E62BDE8F38300002DE9F24F16
:1022300004468EB0D4E90001CDE9020104AF9DF857
:10224000380040F0200BBBF1610F0AD0206B002852
:1022500048BF062004D408BFBBF1670F01D101209D
:1022600020636168C1F30A5040F2FF7290421CD1B2
:10227000080304BF2068002809D10320A0619DF84D
:10228000380061381A2835D30FF2386108E003208E
:10229000A0619DF8380061381A2828D30FF21C611C
:1022A000E068032200F088FBBDE1012815DA204632
:1022B00000F035FC012810DB00250020BBF1610F88
:1022C0001FD1E16830220A708A1CE2609DF8382034
:1022D000612A0CBF782258220FE0626840F2FE317A
:1022E00061F31E52451A62604FF0FF30E6E70FF2CD
:1022F000C851D5E70FF2C851D2E74A706169891C0D
:10230000616110B90026002584E1BBF1610F40F046
:102310009880206BD4E900AB00284CBF2126461CD6
:10232000DDE902010022002300F01CFC36B23ABFB6
:102330008BF00040CDE902A0CDE902AB06F1010827
:102340002D1FB8F1010F8DF810200DF1110736DBAC
:10235000DDE902010022002300F01CFC2FD21C2129
:1023600002A800F02FFCDDE9020100F0B5FCA8F1A5
:102370000708B8F1010F814609DB00F0D9FC0246DD
:102380000B46DDE9020100F0EBFCCDE90201F81D8E
:10239000072105E009F00F0200F8012D4FEA291985
:1023A000B9F1010F01DB491EF4D5491E5CBF0022C3
:1023B00000F8012DF9D5C71DB8F1010FC8DA0DF1EC
:1023C0001100391AB142B8BF0E4636B230000DF1D5
:1023D00011072FD4884206DA04A901444978082954
:1023E000A8BF0F2100DA002104AA024400E0761EF3
:1023F00012F80139401E8B42F9D00F2904D104A9EB
:1024000001444A78521C4A70002802D504AF761C59
:102410002D1D36B2701E0DD439180A783032D2B262
:102420003A2A03DB9DF838303A3B9A18401E01F8EF
:102430000129F2D5206B002840F1EC80701E20634A
:10244000E8E0DDE902010022002300F08BFB3CBF45
:1024500081F00041CDE902012DB247F29750684367
:102460004B49DFF8309190FBF1F52DB2C5F1070A29
:10247000BAF1010F90461CDBDDE902675FEACA7022
:1024800007D542464B463046394600F029FD064600
:102490000F464046494642464B464FEA6A0A00F01C
:1024A0001FFDBAF1000F80468946E7D1CDE90267EA
:1024B00024E0CAF1000A0026374F14E05FEACA7030
:1024C00007D542464B463046394600F009FD0646E0
:1024D0000F464046494642464B4600F001FD4FEA52
:1024E0006A0A80468946BAF1000FE7D1DDE90201A8
:1024F00032463B4600F0C6FDCDE90201BBF1660F56
:10250000216BDFF898900CBF05F10A0006204618F1
:10251000142EA8BF132630208DF810000DF11107DE
:10252000012E3DDBDDE9020100F0ECFB07F10801C3
:1025300004220A23B0FBF3F303EB8307A0EB47006D
:10254000303001F8010C0A20B3FBF0F000EB8007FB
:10255000A3EB47033033521E01F8023DE9D1083E98
:10256000012E01F10807DBDBDDE9020100F0CAFB07
:1025700000F0E8FB02460B46DDE9020100F0F0FB4B
:1025800000224B4600F0ACFCCDE90201CAE700BFD7
:10259000A0860100000024400000F03F84D797414E
:1025A0000DF11100381A0DF1110702E0401E6D1EE9
:1025B0007F1C39783029F9D0BBF1660F08BF691C40
:1025C00004D0BBF1650F0CBF01210021226B8E18D6
:1025D00036B2B042B8BF064636B231001AD4814294
:1025E00004DA785C3528A8BF392000DA30207A1860
:1025F000521E00E0761E12F80139491E8342F9D0BE
:10260000392802D1785C401C7854002902D57F1EFD
:10261000761C6D1C2DB29DF83810009533B23A46E9
:10262000204600F003F80FB0BDE8F08F2DE9F04729
:1026300086B006468A4690461D4600F06CFE012D87
:10264000406A376B90F8009002DA01250FF2782883
:102650004AF02000BDF93840662808BF641C12D03B
:10266000672878D114F1040F7BDBBC4279DA96F845
:102670003800641C000702D4BD42B8BF2F4624B204
:102680003F1B48BF002724B2F068B169012C23DA50
:102690004A1C30234354012F03DA96F83800000710
:1026A00003D5F06800F80290521CE742B8BF7C42A4
:1026B00024B260427062E719AF42B261B8BF3D46D2
:1026C000F068B3692DB2F5612A464146184400F01E
:1026D00073F9781BB062BCE022469542084416DAD2
:1026E0002A46414600F068F9B1696918601B012F5C
:1026F000B161706203DA96F83800000705D5F0681A
:1027000000F80190F069401CF061B762A1E0414619
:1027100000F052F9B06920182D1B012F03DA96F84A
:102720003810090703D5F16801F80090401CB0612A
:102730002DB2AF42B8BF3D46F068B3692DB22A460C
:1027400008EB0401184400F037F9B0692818B061AB
:10275000781B70627DE0BAF1610F14D14FF0700AFE
:1027600016E0BD4204DA96F83810090758BF2F4624
:102770007F1E48BF0027BAF1670F14BF4FF0450A0C
:102780004FF0650A04E0BAF1410F08BF4FF0500A5C
:10279000B169F368481CB061012F18F8012B5A5435
:1027A00003DA96F83810090717D5F168431CB361AE
:1027B00001F80090012F10DB6D1E2DB2AF42B8BFA3
:1027C0003D46F0682DB22A464146184400F0F4F820
:1027D000B0692818B061781B7062F068B169014473
:1027E000200081F800A004D42B20487001F10208D9
:1027F00004E02D224A7001F102086442002502AF74
:1028000008E00A22684600F09FFD019807F8010BD6
:102810006D1C009C21B20129F3DA022D06DA4AF080
:102820002000652804BF302008F8010B4DB9302086
:1028300008F8010B07E06D1E02A8405D303008F873
:10284000010B012DF7DAF068B1690844A8EB00002C
:10285000F06196F8380000F0140010280DD170696E
:10286000B1690818716A0818F1690818B16A08187E
:10287000716B8842BCBF081A306206B0BDE8F087B1
:10288000F8B504460D4616461F46002077B116F8E7
:10289000011BA868A047A86030B1E86A401CE86244
:1028A00000207F1EF3D1F2BD4FF0FF30F2BD0000DB
:1028B00000000000000000006E616E004E414E00FE
:1028C000696E6600494E46003000F8B504460D4674
:1028D00016461F4600F040FD3B463246294620463C
:1028E00001B0BDE8F04000F04EBD00000278C9B272
:1028F0008A421AB11CBF10F8012FF9E718BF002057
:102900007047000000F10103810704D010F8011B9B
:1029100089B18107FAD10268B2F10131914311F016
:10292000803F04BF50F8042FF6E710F8011B11B1E7
:1029300010F8011BFBE7C01A70470000C9B28307FB
:1029400006D0521E22D310F8013B9942F7D11FE066
:10295000083A13D302F1040241EA012141EA01419C
:1029600050F8043B121F21BF4B40A3F1013C2CEA5D
:10297000030C1CF0803FF3D0C9B2001F083210F8DE
:10298000013B521E28BF91EA030FF8D818BF01205F
:10299000401E704780B500F0DFFC012002BD70B51D
:1029A00004460D46164600F0D7FC3246294620461E
:1029B000BDE8704000F0DABC62B38B0708D0521E4D
:1029C00011F8013B00F8013B00F024808B07F6D1A1
:1029D000830740F0208000BF103A07D330B4B1E83D
:1029E0003810103AA0E83810F9D230BC530724BF91
:1029F000B1E80810A0E8081044BF51F8043B40F8C3
:102A0000043BD20724BF31F8022B20F8022B44BF2D
:102A10000B7803707047083A07D3B1E80810083AFA
:102A200040F8043B40F804CBF7D25307E4E700003A
:102A30001B4213D1094236D12AB18446B0FBF2F0D1
:102A400002FB10C2704700F0C1BCFCD3002200237F
:102A500070470B000200002100207047904271EB8C
:102A6000030CF6D370B5B1FA81F4B3FA83F52C1BDD
:102A7000A340C4F1200532FA05F63343A2405FF0CB
:102A80000046E64002E05B085FEA3202841A71EB1E
:102A9000030524BF204629467641F4D302000B00EB
:102AA0003000002170BD012ACFD970B5140C20D0A0
:102AB000B1FA81F4B2FA82F5C4F120046419B4F1D8
:102AC0002006D6D3B2405FF00044F440002502E077
:102AD00052085FEA3303C61A71EB020E24BF304678
:102AE000714664416D41F3D302000B0020002900C0
:102AF00070BD0C46B1FBF2F102FB11452D0445EA15
:102B00001045B5FBF2F402FB145580B240EA0545CE
:102B1000B5FBF2F002FB105240EA044070BD30B445
:102B2000436803F000420121C3F313034360002B09
:102B300004BF0368002B08D10DE00368DD0F45EAF0
:102B4000440444605B000360491E4468E302F4D51A
:102B5000C4F31303436043681A434260084630BC21
:102B6000704700004FF4001C1CEB410F94BF1CEB9E
:102B7000430F09E041EA030C50EA4C0C52EA0C0CFA
:102B800003D2994208BF9042704714BF8B428242E1
:102B9000704700004FF4001C1CEB410F94BF1CEB6E
:102BA000430F09E041EA030C50EA4C0C52EA0C0CCA
:102BB00003D28B4208BF8242704714BF99429042B1
:102BC0007047000070B504460D466068C0F30A50B7
:102BD00040F2FF71884207D16068000304BF20689B
:102BE000002817D0022070BD20B92046FFF797FFBC
:102BF000012866DA012D0FDB40F2FF71091A8D42C0
:102C00000AD3606800284CBF9FED2F0B9FED300B5F
:102C100084ED000B012070BD4142A942616806DAD3
:102C20006FF31E51401941EA0050606040E0401EC1
:102C300063684519012205F1350062F31F533528F9
:102C400001F00041636003D361600020206070BD2B
:102C5000002015F11F0F04DA2068236000222035C0
:102C600062606A4212D0401E25688041C2F1200392
:102C7000C0439D4045EAD07025686668D54006FA95
:102C800003F32B4323606368D340636062680A43A5
:102C9000B0F1004F626003D80DD12078C0070AD58B
:102CA0002068401C2060206828B96068401C606073
:102CB0004FF0FF3070BD6068884204BF2068002874
:102CC000F6D1002070BD00BF000000000000F0FF42
:102CD000000000000000F07FF446400D40EAC120F3
:102CE000490006D200F014F8004248BF6FF00040DF
:102CF000604700F00DF84FF0004188428CBF084655
:102D000040426047400D40EAC120490080F00D80FC
:102D100040F00040490DA1F58061491C05D4D1F176
:102D20001F0154BFC840C01770474FF000007047E4
:102D3000010040F10980F446404200F005F851F0EE
:102D400000416047010000BF09D0B0FA80F188401F
:102D5000C91CC1F58461090501EBD021400570470C
:102D6000F0B44FF0004591EA030F44BF6B4000F010
:102D70002FBB00BF841A71EB030604D26E40001B08
:102D8000B141121973414FF4001C1CEB410F34BFC9
:102D90007CEB430684E00C0DA4EB1356362E7DDC51
:102DA000012E43DC45EAC32343EA525312BFD20249
:102DB00092025B08240545EAC12141EA5051D2EB59
:102DC000C020994125D407D1B0FA80F610FA06F157
:102DD00064D00020203608E0B1FA81F6B140C6F197
:102DE000200220FA02F21143B0404FEAF474B4EB2F
:102DF000465434F001064FEA74040AD8D6F500169A
:102E0000760D04F00044F04061FA06F25040F140C3
:102E10004840C00A40EA415021F0004128BF5FEA23
:102E2000500550F1000044EBD12137E045EAC323BF
:102E3000DB0A45EAC121C90AB6F120050EDD42EAE6
:102E40000242120CC5F1200603FA06F6EB4042EAF4
:102E500006056D42984161F100010DE062FA06F548
:102E6000F240554063FA06FC82EA0C02F3405A40F5
:102E70006D42904161EB030111F4801F05D1641E86
:102E8000620502D06D004041494121F480114308A0
:102E900075F1004350F1000041EB0451F0BC704764
:102EA0001CEB410F15D223F0004352EA43060BD02E
:102EB0004FEA4C0CBCEB410F04D80C0D661E342EAF
:102EC000B7DDEBE7801A994150EA410608BF0021BF
:102ED000E4E708BF1CEB430F28BF6FF00001DDE7FC
:102EE000B0B581EA030C0CF0004C40F2FF7515EA16
:102EF00011541DBF15EA1357AC42AF4239E0E41933
:102F000023EA455343F48013C90241F0004141EAEA
:102F1000505EC7021100A7FB020200284FF000001C
:102F2000EEFB01204FF00001E3FB072118BF42F048
:102F30000102401800214941E3FB0E01A4F5806421
:102F40000F0302D252004041494154F101046CDDAB
:102F5000470872F1004250F1000051EB0451A1F515
:102F600080115CBF41EA0C01B0BD4CEA0551002064
:102F7000B0BD05EA1357AC4214BFAF4241E050EA7E
:102F8000410E1CBF52EA430E02E061460020B0BD74
:102F900024423C441BD15FEA070EF6D0090302BF6E
:102FA00001460020AEF1140EB1FA81F7AEEB070432
:102FB00001FA07FE0C37C7F1200100FA07F7C840F5
:102FC0004EEA000E23EA455343F48013A2E733F0A0
:102FD0000043B3FA83F704BFB2FA82FE77440B3F93
:102FE000E41BB7F1200E2FBF02FA0EF3BB40C7F16E
:102FF000200E22FA0EFE38BF43EA0E03BA40641CCC
:1030000082E750EA410E14BF52EA430E6FF000010E
:103010004FF4001717EB430F8ABF194617EB410F08
:10302000B5E74CEA05510020B0BDD4F10104B4F17C
:1030300020070FDAC4F12007520828BF42F001022E
:1030400010FA07F501FA07F7E1BF2A43E0403843D9
:10305000E1400FE0352C98DCC7F1200452EA400231
:1030600020FA07F218BF42F0010231FA07F0A1403E
:103070000A43002172F1004250F1000051EB0C01B3
:10308000B0BD00002DE9F04140F2FF7581EA030C6C
:103090000CF0004C15EA11541DBF15EA1357AC4251
:1030A000AF42E9E0BC41C1F31301C3F31303801A3B
:1030B000994143F4801304D2641E400049418018B2
:1030C0005941C90241EA5051B1FBF3F603FB161115
:1030D000A2FB0675D7EBC020A94102D2761E80184C
:1030E0005941C90241EA5051B1FBF3FE03FB1E11E5
:1030F000A2FB0E75D7EBC020A94103D2AEF1010EA1
:1031000080185941890241EA9051760546EA8E2E8F
:10311000B1FBF3F603FB1611A2FB0675D7EB80207B
:10312000A94102D2761E80185941C90241EA505184
:103130004EEA060EB1FBF3F603FB1611A2FB067571
:10314000D7EBC020A94102D2761E80185941C9028E
:1031500041EA5051B1FBF3F703FB1711A2FB07350E
:10316000D3EBC020A94167F100070CBF004247F034
:10317000010766F3D5274FEA1E31B80814F58064BD
:1031800014DDBD0775F1004250EB0E5051EB0451B8
:1031900011F5801F5CBF41EA0C01BDE8F0814CF0E5
:1031A0007F6141F0E0410020BDE8F081BD076D087E
:1031B00040EA0E5041F48011D4F10104B4F120062C
:1031C0000ADAC4F120060200E04001FA06F3E14009
:1031D0001843B24015430EE0342C14DCC6F1200431
:1031E00045EA40056D0820FA06F2154321FA06F07B
:1031F000A1400D43002175F1004250F1000051EB58
:103200000C01BDE8F08100205FEA0C01BDE8F0810F
:10321000CFB992185B41B3FA83F704BFB2FA82F6D2
:10322000BF190B3FB7F120062FBF02FA06F3BB40D0
:10323000C7F1200622FA06F638BF3343BA401CB164
:10324000E419641E2FE77F4231F00041B1FA81F4A6
:1032500004BFB0FA80F6A4190B3CB4F120062FBFCE
:1032600000FA06F1A140C4F1200620FA06F638BFA4
:103270003143A0403C1B16E7AC421ABF05EA135786
:10328000AF4214E050EA41061CBF52EA4306BFE7D2
:1032900050EA4107304661461CBF41EA0551BDE88E
:1032A000F08152EA430C08BFC143BDE8F081002021
:1032B0004FF4001616EB410F98BF16EB430F08BFF3
:1032C00016EB410F24BFC14305E016EB430F0CBFC3
:1032D00061464CEA0551BDE8F081000080B5134815
:1032E00000F0E0F80FF24C020FF24401016042627C
:1032F00041600FF24402826381600FF24402C160B8
:103300000161416181618162C16201634163C263A4
:103310000164416401BD10B5044800F0C3F80446DF
:10332000206808B9FFF7DAFF204610BD4C020020E4
:10333000000000002E00000066616C736500000054
:10334000747275650000000091FBF2F303FB12112B
:10335000C0E900317047000080B5DFF80C0000F0D4
:10336000A1F8806902BD0000DC02002030B430B951
:103370000FF24800D0E90045C2E900451BE00170AA
:10338000012030BC704730B431B90FF23800D0E9B9
:103390000045C3E900450EE01AB930BC6FF00100EA
:1033A000704708B10A7802800978481E804130BC15
:1033B000C043C00F7047002030BC704700000000C1
:1033C0000000000000000000000000007047000046
:1033D000841A71EB030603D2001BB1411219734129
:1033E0004FF4001C1CEB410F34BF7CEB430443E063
:1033F0000C0DA4EB1356352E50DC45EAC323DB0A33
:1034000045EAC121C912B6F120050DDD63FA05F6C2
:10341000EB4086EA0305124218BF45F00105C018CB
:1034200051F100010CD213E062FA06F5F24055406A
:10343000F3415A40B340F3405A408018594107D3F2
:1034400049085FEA30005FEA350528BF45F001050D
:1034500001F58011420875F1004250F1000041EB86
:103460000451F0BC4FF4001C1CEB410F38BF7047F7
:103470000020090D090570471CEB410F10D252EADC
:1034800043060BD0BCEB410F05D80C0DAB43661EB9
:10349000342EB5DD02E0AB4380185941F0BC7047D3
:1034A000F0BC7047704700000EB418B50446089889
:1034B000012817D1A06BDFF8E41820F48030A06356
:1034C000E0680840E060E06820F44010E0600F9899
:1034D000012803D1E06840F48010E060204600F04D
:1034E00040FC09E0E06840F04000E060204600F069
:1034F00038FC4FF48030A0630698012807D1A068FB
:1035000040F00600A060A06840F02000A06000200D
:1035100012BC5DF810FB816841F0010102E0816896
:103520004908490081600020704780B5C26822F0D8
:10353000C0420129C26003D1C16841F0005103E0DB
:1035400019B9C16841F08041C160322000F0A6BBCA
:103550000EB4FCB50446119DA06B0026002D0CBFD7
:1035600040F4001040F4002004F56061A06304F50D
:1035700000670E60386838600C98012805D10998FA
:10358000002814BF0121002100E00321204600F0A3
:1035900081F81021204600F061F8204600F06DF817
:1035A0003E617E614FF0FF30B861FE61FF204FF059
:1035B000904103E0002313619060761C079A9642C5
:1035C0000AD204EB461202F510621368002B4EBFBC
:1035D000116000231360EDE7002203E000261E6166
:1035E0009860521C079B9A420AD204EB421303F5DF
:1035F00030631E68002E4EBF196000261E60EDE786
:10360000386920F4807038610A98012809D1DFF800
:1036100090173963396B41F4803141F0030139630C
:10362000396B0021A1616FF08041616100F0AEFB58
:10363000DFF870170843A0610D9818B1A06940F039
:103640000800A061012D05D1A06940F0804040F044
:103650000400A0610020F6BC5DF810FB890141F078
:1036600020010161DFF84017491E01D10320704796
:1036700002699206F8D40020704710210161DFF83A
:103680002817491E01D1032070470269D206F8D4D9
:103690000020704700F50060ECE200F500600021BA
:1036A000826812F0060F10D0826802F00602022A29
:1036B0001DBF826802F00602062A032105D0806839
:1036C00000F00600042808BF02210846704730B504
:1036D0004D780C7800F500630122012D02FA04F404
:1036E000DD69DFF8C82616D1A4B22C43DC610B7863
:1036F00000EB431000F510600468240420D4046833
:103700008D68C978C5F30A0545EA814141EA8351CC
:103710001143214313E045EA0444DC610B7800EBDC
:10372000431000F5306003681B0409D403688C68FB
:10373000C978C4F30A0444EA814111431943016082
:10374000002030BDF8B50C46227894F801E001461F
:10375000012601EB421CBEF1010F00F056F814D116
:103760000CF5106CDCF800E02EF4004ECCF800E014
:1037700000F03CF8521E0CD000F030F8FAD41021C2
:10378000FFF76CFF00F01BF80AE000F047F8521E4C
:1037900001D10320F2BD00F019F8F8D400F004F8CC
:1037A000FFE7E8610020F2BD686840F4806068606F
:1037B000E869217806FA01F120EA01407047E869DA
:1037C000217806FA01F189B288437047207801EB2D
:1037D000401000F530608068C0067047237801EB28
:1037E000431303F510639B685B00704794F800C0B7
:1037F00001EB4C1C0CF5106CCCF80070277801EB39
:10380000471707F510673B60704701F50065DFF863
:1038100098254FF080434FF0006770470CF53060FB
:10382000D0F800C02CF4004CC0F800C0207801EBA8
:10383000401000F530600760207801EB401000F583
:103840003060036070472DE9F04182B00C7891F848
:1038500001E0DFF85C65DFF85C75034603EB441CB0
:10386000BEF1010F03F50064154640F08980D1F8E0
:1038700014E0BEF1000F0CF5106C0DD1DCF81060F7
:103880003E40CCF8106000F0D3F847F4002700F079
:10389000CEF8FF0CFF043CE0DCF810E04FEADE4E0F
:1038A0004FEACE4ECCF810E091F800C003EB4C1C70
:1038B0000CF5106CDCF810E007EA0E07CCF810707D
:1038C0000F78D1F808E003EB471707F51067D7F832
:1038D00010C0D1F81480F044A8F10108B8FBFEFE36
:1038E00006EACE4646EA0C063E6100F0A1F8D1F8A1
:1038F00014C0CCF3120C4CEA07073761CE78012EC6
:1039000008D100F095F827F0C04700F090F847F094
:1039100000573761012D07D10D780E6903EB45156E
:1039200005F510656E610AE0CD78012D0AD04D696C
:103930002DB1656B0F780126BE4035436563CD78A8
:10394000012D0DD10D78A46803EB451505F5106523
:10395000E4052C6854BF44F0005444F080542C60BB
:103960000C7803EB441300F0E1F8CB78012B4ED137
:1039700000920A784B69C9689BB200F0FCF846E0F7
:103980000CF530600269D20CD20400F048F83A40DD
:10399000026108788A684F6900F03CF847B9066907
:1039A000C2F31202324300F03AF842F4002212E06D
:1039B000D7197F1EB7FBF2F292B2076906EAC24638
:1039C0003E430661087800F025F806698F687A435F
:1039D000C2F312023243012D026104D10878CA6891
:1039E00000F018F84261C87801280BD10878A26865
:1039F00000F010F8D205026854BF42F0005242F0C5
:103A000080520260087803EB401000F096F8002026
:103A1000BDE8F68103EB401000F5306070470261AD
:103A2000087803EB401000F5306002697047376199
:103A30000E7803EB461606F510663769704730B509
:103A40000B784D7800EB4314012DDFF868333CD13F
:103A50004D6904F51064002D256906D12B402361C2
:103A600000F079F8E40CE40412E000F058F804F5F2
:103A7000106425692B4023614C698B68A34288BF81
:103A800023464B6100F067F84D69C5F312052C43DE
:103A90001C61012A0B7800EB431300F047F807D1B3
:103AA0000A78096900EB421000F51060416134E0CA
:103AB0004A69002A31D000F500600123426B097881
:103AC00003FA01F11143416327E004F530642569ED
:103AD00000F025F804F5306425692B4023614B691B
:103AE0000BB18B684B6100F02FF844F400241C618B
:103AF00000F02AF88D68C5F312052C43012A1C61D9
:103B000006D10A78CB6800EB421202F530625361AD
:103B1000097800EB411000F010F8002030BDED0CEA
:103B2000ED0425610C7800EB4414704703F5106335
:103B30001C6844F004441C60704700F53060016864
:103B400041F00441016070470B7800EB431303F52B
:103B500030631C6970470B7800EB431303F5106367
:103B60001C6944F400241C610B7800EB431303F53B
:103B700010631C69704770B5049C002564B9DB1C98
:103B800007E000EB023651F8044B06F580566D1C39
:103B90003460B5EB930FF4D3002070BD10B5002353
:103BA000D21C05E000F580545B1C246841F8044BEE
:103BB000B3EB920FF6D3084610BD4B780A78012B71
:103BC00000EB42120ED102F510621368002B03D4F1
:103BD000136823F080431360097800EB411000F56F
:103BE00010600DE002F530621368002B03D41368F7
:103BF00023F080431360097800EB411000F530603A
:103C0000016841F4001137E04B780A78012B00EB92
:103C1000421210D102F51062136823F400131360EE
:103C2000CA78032A18BF022A19D1097800EB41107B
:103C300000F510600FE002F53062136823F4001302
:103C40001360CA78032A18BF022A08D1097800EB4A
:103C5000411000F53060016841F0805101600020A2
:103C6000704700F500600901026822F4FE620260FC
:103C700001F4FE610268114301600020704780B5C5
:103C800000F50060416821F0020105E080B500F513
:103C90000060416841F002014160032000F08CF8AF
:103CA000002002BD416980690840704700F500604E
:103CB0008169C0690840000C704700F500608169A7
:103CC000C069084080B2704700EB411101F53061D6
:103CD00000F50060896840690840704700F500629F
:103CE00000EB41101369526B00F51060CA40D1011E
:103CF000806801F08001194308407047406900F076
:103D00000100704700F5106100F500600A68D20AF2
:103D1000D2020A60826802F00602042A03D10A680D
:103D200042F003020A60416841F480714160002062
:103D3000704700F53060002303610129036943F4F3
:103D400000230361036943F018030361036943F02F
:103D5000C043036103D142614FF080210160002024
:103D60007047DFF844100A46521E08D00369002B42
:103D7000FAD5026942F001020261491E01D1032015
:103D800070470269D207F8D40020704718B9A069BB
:103D900040F01000A061A06970470000BFFFBDFFA8
:103DA0000001800000383C80410D030000800010BD
:103DB0000000F81FFFFF07E038B5044600F010F8D8
:103DC00014F1010F054602D004480078241800F0D1
:103DD00007F8401BA042FAD331BD00BF000000200D
:103DE00001484068704700BF0000002030B58BB02C
:103DF000054600240DB9012049E0032085F8B903E8
:103E0000284600F0EBFB2868FFF789FB83B000F041
:103E100040F80EBC2868FFF747FB28680021FFF731
:103E200084FB1C2000FB04F12944383101220C7072
:103E3000CC804A70641C00220F2CCA708A60CA6051
:103E40004A61EFD30024002300FB04F129444FF41E
:103E5000FC720A4453701470CC87D3709360D360A3
:103E600053612A6802EB8402641C0F2CC2F80431EF
:103E7000EAD383B000F00DF80EBC2868FFF768FBAA
:103E8000012085F8B9032868FFF700FF00200BB078
:103E900030BD291D68463422FEF79EBD10B500F0E6
:103EA0006FFA01D1022010BD00F060FA2068FFF720
:103EB00032FB61E22DE9F04F044683B020680090A8
:103EC0000026FFF71BFF00284FF0000A40F01D827C
:103ED00000F049FA002800F0188200F044FA800748
:103EE00004D52068416901F0020141611C2500F000
:103EF0003AFA000349D52068FFF7D8FE5FEA0008C8
:103F000042E05FEAC8703CD52068F1B2FFF7DCFE02
:103F10008146009800EB461000F530675FEAC970F3
:103F200022D50120B860206901280FD105FB06F0D9
:103F300020444FF40071084401683A69C2F3120248
:103F4000891A01610268416811444160F1B220465A
:103F500000F086FB2069012808BF002E04D1D4F8A8
:103F60000C0208B900F0F8F95FEA097004D52046A0
:103F700000F06FFB0820B8605FEAC96044BF102002
:103F8000B860761C5FEA5808BBD1009800F5006065
:103F90000190071D00F0E7F9400358D52068FFF7AE
:103FA0008CFE5FEA0008564650E05FEAC8704AD5CA
:103FB0002068F1B2FFF792FE8146009800EB4610B0
:103FC00000F5106B5FEAC9701ED5386B0121B14056
:103FD000884338630120CBF808002069012806D106
:103FE00005FB06F02044416C026C11444164F1B2BF
:103FF000204600F03FFB2069012808BF002E03D1B6
:10400000E06C08B900F0A8F95FEA097044BF082025
:10401000CBF808005FEAC96044BF1020CBF8080065
:104020005FEA496044BF4020CBF808005FEA89702E
:1040300044BF0220CBF808005FEA096003D531468F
:10404000204600F086FA761C5FEA5808ADD100F0F1
:104050008AF900280BD538684008400038602046AF
:1040600000F03AFB2068416901F00041416100F035
:104070007AF900050AD57868C00744BF204600F0E9
:1040800016FB2068416901F40061416100F06BF9A1
:10409000C00442D5386840084000386010212068CC
:1040A000FFF7DCFAFF200AE0009901EB4A1101F565
:1040B000106201F53061906088600AF1010A616860
:1040C0008A45F1D34FF0FF307861B86940F00110B4
:1040D000B861206B60B10198D0F88400019940F07C
:1040E0000B00C1F88400386C40F00B00386407E026
:1040F000386940F00B003861F86840F00B00F86058
:1041000001980068019920F4FE60086000F0F9F958
:104110002068416901F48051416100F024F9800474
:1041200077D52068FFF7EEFD2068C16821F4705153
:10413000C1602068FFF7B1FA48B9E0604FF4007041
:1041400060612068C16841F41051C16059E00320EA
:10415000E0604020606100F030FC6D4A6D4B2168EA
:1041600012189A4203D2C86840F4705048E06A4A74
:104170006A4B12189A4203D2C86840F460503FE07C
:10418000674A684B12189A4203D2C86840F45050EC
:1041900036E0654A654B12189A4203D2C86840F46B
:1041A00040502DE0624A634B12189A4203D2C8680D
:1041B00040F4305024E0604A604B12189A4203D217
:1041C000C86840F420501BE05D4A5E4B12189A42CA
:1041D00003D2C86840F4105012E05B4A5B4B1218DF
:1041E0009A4203D2C86840F4005009E0584A1018B7
:1041F000584A9042C86834BF40F4E05040F4C05080
:10420000C860204600F043FA2068416901F400517B
:10421000416100F0A8F8C00636D52068816921F018
:10422000100181614FF4FC710098076A07F00F00DC
:10423000684320444518C7F34340022811D147F68C
:10424000F07007421BD0E9680098C7F30A12FFF725
:10425000A5FCE968C7F30A100144E960A9694018A0
:104260000CE006280BD14FF46F702118009808223B
:10427000FFF794FCA869C7F30A110818A861206821
:10428000816941F01001816100F06DF8000707D5E8
:10429000204600F0F8F92068416901F00801416109
:1042A00000F061F8C00208D5F1B2204600F01CFA17
:1042B0002068416901F48011416100F054F88002E6
:1042C00008D5F1B2204600F00BFA2068416901F4EC
:1042D0000011416100F047F8400007D5204600F08A
:1042E00007FA2068416901F08041416100F03BF824
:1042F00040070AD520684568680744BF204600F09B
:10430000FBF92068416829434160BDE8F78F000050
:10431000405327FF00350C00401E1BFF40420F009A
:1043200000DC0BFF804F1200808CF9FE20D61300BA
:1043300060B6E5FE60E3160000D3CEFE40771B00BA
:10434000C05BB3FEC091210000CA91FE2075380009
:10435000E05459FEE09C41004FF46F702218206831
:104360000121FFF7E6BC2068FFF79CBC012084F820
:10437000B8032068FFF783BC002084F8B80310BDA1
:10438000044694F8B8030128704710B5FFF7F8FF0A
:1043900001D1022010BD00F004F82068FFF761FC95
:1043A000EAE7012084F8B803704738B5044601F005
:1043B0007F001C25684320440D064EBF38304FF463
:1043C000FC75401901F07F050570C90941708260D4
:1043D000C370417809B10178C180022B04BF00216C
:1043E000017194F8B813012901D1022032BD00F007
:1043F00023F8FFF76CF980E010B5044601F07F0068
:104400001C22504320440A064EBF38304FF4FC7241
:10441000801800F008F801D1022010BD00F00CF85F
:10442000FFF790F9A8E701F07F020270C909417017
:1044300094F8B81301297047012184F8B813014694
:104440002068704738B50C4604F07F011C2569438D
:1044500001444FF4FC7529444B6100238B614B7080
:10446000CA6004F07F030B700469012C08BF0A6165
:1044700002690068002BD2B221E001F00F011C227A
:1044800051430844D0F8100280B2704738B501F0AB
:104490007F041C256C430444383401F07F016361C0
:1044A000E2600023A3612170012363700369012B83
:1044B00008BF2261026900680029D2B2214602D1F8
:1044C000FFF7BDFA01E0FFF7BEF9002032BD38B5B5
:1044D00000F02EF80122827001F07F050570FFF7D1
:1044E000A5FF01D1022032BD84F8B823014620681F
:1044F000FFF763FB0DB900F004F8002084F8B8035F
:1045000032BD4FF46F70221821692068C9B2FFF7DD
:1045100010BC10B500F00CF800228270FFF783FF8A
:1045200001D1022010BDFFF787FFFFF76DFB23E7E6
:104530001C2204460B06084605D500F07F005043B8
:10454000204438307047504320444FF4FC721044EC
:1045500070472DE9F8450D4680461C2068434044CD
:1045600000F138077869B969D8F800A0441AB8682A
:10457000A04238BF0446E01C860816E0441AB8681A
:10458000A04238BF0446E01C8608D8F81000C0B22C
:104590000090A3B2F968EAB25046FFF7ECFAF86867
:1045A0000019F860B8692018B8610AEB451000F5E9
:1045B0001060806980B286423EBF7869B9698142E5
:1045C00001D20028DAD134B90AF500600122416B2A
:1045D000AA40914341630020BDE8F2850068B0F134
:1045E000A04F00D0704710B586B04FF40070019016
:1045F00000200290039001A95D4C204600F014FABF
:104600004FF4C050019001A90220029000200390B5
:10461000032004900A200590204600F005FA554832
:10462000016841F0800101600022002100910169D0
:1046300041F4804101610021006900F48040009054
:104640000098432000F0F2FA432000F00CFB06B083
:1046500010BD4FF46F710144D0F8EC0300F06CBB57
:104660001C2212FB01F20244D0F8EC03D2F804221F
:1046700000F08FBB1C2212FB01F20244D0F8EC03C5
:10468000526C00F0BBBBD0F8EC0300F039BC10B5A5
:1046900004460121E06800B90021D4F8EC0300F0E1
:1046A0001EFCD4F8EC03BDE8104000F0F6BB10B5DA
:1046B0000446D4F8EC0300F015FC206800F56060B7
:1046C000016841F001010160206A20B12A480168B7
:1046D00041F00601016010BDD0F8EC0300F009BC08
:1046E000D0F8EC0300F01CBCD0F8EC0300F016BCD2
:1046F000D0F8EC0300F016BCD0F8EC0300F014BCCA
:1047000010B5017881BB1D4CC4F8EC03C0F8204201
:104710004FF0A0402060042060600220E060002094
:10472000206160610220A0610020E061206260627F
:104730000120E062002020632046FFF757FB28B1EC
:1047400040F251110FF2341000F0E2FD80212046BA
:1047500000F025FE40220021204600F0FFFD8022CF
:104760000121204600F0FAFD002010BD00000000ED
:10477000000002403438024010ED00E05093002069
:1047800010B5D0F82002FFF789FB002418B10228E9
:104790000CBF01240224204610BD38B51C46134628
:1047A000D0F820022246FFF700FE002518B10228AB
:1047B0000CBF01250225284632BD10B5D0F82002D5
:1047C000FFF71AFE002418B102280CBF01240224AE
:1047D000204610BD10B5D0F82002FFF778FE002467
:1047E00018B102280CBF01240224204610BD10B5C8
:1047F000D0F82002FFF78DFE002418B102280CBF6C
:1048000001240224204610BDD0F8200201F07F02CE
:104810001C235A43104409064CBF90F83A0090F804
:10482000FA01704710B5D0F82002FFF7AEFD002462
:1048300018B102280CBF01240224204610BD10B577
:10484000D0F82002FFF722FE002418B102280CBF86
:1048500001240224204610BD10B5D0F82002FFF735
:10486000F1FD002418B102280CBF012402242046C7
:1048700010BDD0F82002FFF700BE0000443A5C7083
:10488000726F5F73746D33325C73746D3332663480
:1048900030375C666F7246725F76335C666F724665
:1048A000725C5372635C757362645F636F6E662ED5
:1048B000630000002DE9F04104000D4652D0404E47
:1048C00000F076F802D200F072F84BD120683D4F2C
:1048D000810712D5400703D5B86840F4E050B860AE
:1048E0002078000703D5B86840F46040B860B86825
:1048F000A16820F0F0000843B8602078C00729D5EF
:104900006068012802D13968890305E0022818BFD0
:10491000032803D13968890103D423E03968890762
:1049200020D5B968890840EA8100B860FFF758FAD5
:104930008046B868616800F00C00B0EB810F09D0C8
:10494000FFF74EFAA0EB080041F289318842F0D31C
:1049500003202AE0306800F00F00854204D200F006
:1049600026F801D0012020E02078400705D5B8685E
:10497000E16820F4E0500843B8602078000706D5CD
:10498000B868216920F4604040EAC100B86000F0D6
:104990001FF8BA680C49C2F30312895CC8400B497E
:1049A0000860002000F000FD0020BDE8F0813570B7
:1049B000306800F00F00A842704704480068704754
:1049C000003C024000380240A87300080C000020A0
:1049D00010B5124C606800F00C00042802D00828C2
:1049E00002D019E00E4810BD206800F03F02206898
:1049F000002340022068C0F388104CBF08490949D1
:104A0000A1FB0001FEF714F82168C1F30141491C24
:104A10004900B0FBF1F010BD024810BD043802405F
:104A200040787D010024F4002DE9F84F0246002370
:104A3000DFF89881DFF89891DFF898A14FF00F0B1D
:104A400001200C68984000EA040E864540F0B880CA
:104A50004D689C00022D18BF122D0FD1DD0802EB0E
:104A6000850C04F01C05DCF820600BFA05F7BE434A
:104A70000F6907FA05F53543CCF820504FEA430C8F
:104A8000032516680F7905FA0CF5ED4307F00307C7
:104A90002E4007FA0CF73E4316604E68012E18BFF1
:104AA000022E03D0112E18BF122E0FD19668CF6898
:104AB0002E4007FA0CF73E439660566826EA00003F
:104AC0004E68C6F300169E4030435060D0682840C0
:104AD0008D6805FA0CF52843D0604868C0006FD592
:104AE0000020009004F00C06DAF8000040F480404A
:104AF000CAF800000BFA06F4DAF8000000F480406F
:104B000000900098980859F8205025EA0404324D86
:104B1000AA4208BF002522D0304DAA4208BF012575
:104B20001DD02F4DAA4208BF022518D02D4DAA42F4
:104B300008BF032513D02C4DAA4208BF04250ED070
:104B40002A4DAA4208BF052509D0294DAA4208BF0F
:104B5000062504D0274DAA420CBF07250825B540DD
:104B60002C4349F820406FEA0E00D8F8004000EAD4
:104B7000040C4C68E40348BF4EEA0C0CC8F800C0B3
:104B8000D8F8044000EA040C4C68A40348BF4EEA7D
:104B90000C0CC8F804C0D8F8084000EA040C4C68B3
:104BA000E40248BF4EEA0C0CC8F808C0D8F80C4024
:104BB00020404C68A40248BF4EEA0000C8F80C0030
:104BC0005B1C102BFFF43CAFBDE8F18F003C0140B3
:104BD000083801404438024000000240000402400E
:104BE00000080240000C0240001002400014024085
:104BF00000180240001C02400901002806D52E4A78
:104C000000F00F00104400F8041C70472B4A1154A8
:104C100070472B490A684FF6FF0300021A4000F460
:104C2000E0601043274A10430860704738B5244BB2
:104C30001B68C3F30223C3F10704052C28BF042417
:104C40001D1D072D34BF0023DB1E012505FA04F4CA
:104C5000641E2140994005FA03F35B1E1A4011437C
:104C6000BDE83440C8E7012100F01F029140164A18
:104C7000FFE7400942F82010704710B5401EB0F120
:104C8000807F01D3012010BD104C60600F214FF0D8
:104C9000FF30FFF7B1FF0020A06007202060002058
:104CA00010BD0A49042808680CBF40F0040020F039
:104CB000040008607047000018ED00E000E400E028
:104CC0000CED00E00000FA0500E100E010E000E07B
:104CD00000F000B8704710B508B9022010BD4FF4BD
:104CE000FE7303449C690CB100249C6101B15961BD
:104CF000012119700270FFF703FD002010BD002292
:104D0000002914BFC0F8141202221046704780B563
:104D1000FFF736FD002002BD10B5D0F814220224A2
:104D20001AB11268904700B90024204610BD80B522
:104D3000D0F81422526801E138B504464FF40270ED
:104D40002518284600F0EEFC4FF4FA7020440121AB
:104D50000160418B4160007D10F01F0103D00229EA
:104D60000BD005D30EE02946204600F03DFB0EE0B7
:104D70002946204600F0DAFB09E02946204600F0EB
:104D8000EFFB04E000F080012046FFF723FD002048
:104D900032BD38B5044610464FF4FA72A3180A0023
:104DA00021D11968032927D14FF4867121444A681B
:104DB0000D68AA420AD2AB1A0B60934238BF1A465A
:104DC000014692B2204600F009FD15E0186A01691B
:104DD000080004D0187A032804BF204688472046DC
:104DE00000F004FD08E0186A8269100004D0187A07
:104DF000032804BF20469047002032BD38B5054641
:104E000010464FF4FA72AC180A003BD1216802290F
:104E100032D105F118014A688B68934207D2D21A41
:104E20004A60014692B2284600F0C6FC11E00868CC
:104E3000B0FBF3F103FB110191B9984210D3616803
:104E400088420DD200220021284600F0B5FC002047
:104E500060600023002200212846FFF7FDFC0BE0E4
:104E6000206AC168080004D0207A032804BF2846BD
:104E70008847284600F0C1FC207B01280BD1002088
:104E8000207308E0206A4269100004D0207A0328C9
:104E900004BF28469047002032BD10B50446402389
:104EA00000220021FFF779FC4020C4F810014023C4
:104EB000002280212046FFF770FC201D4021C161A7
:104EC0004FF4FE71621801211170D16929B1926904
:104ED00001685268C9B220469047002010BD017495
:104EE000002070474FF4FE7108440178417004219E
:104EF00003E04FF4FE7108444178017000207047D0
:104F000080B54FF4FE7101440A78032A04D18969FF
:104F1000C9690A0018BF8847002002BD00207047F9
:104F2000002070470020704780B54FF4FE71421892
:104F300001211170926941685268C9B290470020FE
:104F400002BD000010B5DFF88043201D00F095FC85
:104F5000DE4862880168891801604168491C416027
:104F600010BD10B5D84C04F1400000F086FCD748C5
:104F700001684268B1FBF2F140F6E442514340F669
:104F8000FF72B1FBF2F1E1670121217000210160A4
:104F9000416010BD2DE9F04198B000F017FE00F01F
:104FA0009AF800200090CA4CCA48016841F080017C
:104FB0000160016801F0800100F0A4F941F00101F5
:104FC0000160006800F001000090009800F052F9C4
:104FD00000F016FEC048206000206060A060012044
:104FE00020610020A06120624FF08050E0624FF00D
:104FF000C060A0620020E0600120E0612063606189
:10500000204600F019FE00B1FEE7039003A901203D
:10501000049000200590204600F0C6FE00B1FEE797
:1050200000F0FFF8A84DAD48286442F227306864CC
:105030000020A86441F63F70E86405F1400000F0EC
:10504000E3FB00B1FEE70190029001A905F14000E9
:1050500000F0FAFF00B1FEE700F092F8281D00F022
:10506000E0FB281D00F0E6FB05F1400000F0E2FB4C
:105070000122A91C204600F01CFE994C0FF2D427F7
:1050800020680FF2902840F0010020608DA60A20D1
:10509000FEF792FEA0686988000B41EA0030A0602C
:1050A00028780028F3D007A841464022FDF784FC69
:1050B000EA6F394607A800F0EDFF07A9304601F076
:1050C00003F807A8FDF71EFC014607A801F02DF81C
:1050D00000202870DBE700B593B0002000908148E5
:1050E000016841F080510160006800F0805000903C
:1050F0000098002000907C48016841F480410160E4
:10510000006800F4804000900098012006904FF461
:105110008030079002200C904FF480000D90042006
:105120000E9048200F90022010900320119006A8A6
:1051300001F012F800B1FEE70F20019002210220D9
:105140000290002003904FF48050049000200590BE
:1051500001A8FFF7AFFB00B1FEE7FFF72EFC4FF40D
:105160007A71B0FBF1F0FFF788FD0420FFF799FD9D
:10517000002200214FF0FF30FFF758FD13B000BDB3
:1051800000B558488BB0016841F00051016005A995
:10519000006800F000500090009810200590032057
:1051A000069000200990514801F034F950480168F8
:1051B00041F06061016001AA016821F0C00141F085
:1051C00040010160016821F4403141F48031016007
:1051D000016821F4907141F480710160016821F44B
:1051E00000710160016841F480610160016821F48F
:1051F000C05141F400610160016821F4C04141F4F3
:1052000000510160416921F00401416120200190B9
:105210000020029004903749314801F071F90BB039
:1052200000BD4FF0804010B5274C606042F227303F
:10523000A06086B00020E06007202061002060614F
:10524000201D00F0E1FA00B1FEE74FF4805002901B
:1052500002A9201D00F0BAFB00B1FEE7202000905B
:10526000694600200190201D00F0EEFE00B1FEE72F
:1052700006B010BD80B500200090002215480168DE
:1052800041F480010160016801F4800100F03AF806
:1052900041F4001101600068174900F4001000900B
:1052A000009816480068002008704FF480301449B8
:1052B000086000213820FFF7B9FCBDE80240382023
:1052C000FFF7D1BC25730A003C9D00209C9F002065
:1052D0003C9F002030380240002001400014004074
:1052E000007400404038024000700040000002405E
:1052F000886002400100100210E400E00CED00E0C4
:1053000000E100E0009100990021009101687047E0
:10531000FEE70000000000000000000000000000A8
:10532000000000000000000000000000000000007D
:10533000000000000000000000000000000000006D
:10534000000000000000000000000000000000005D
:10535000000000002564206D560D000070B5006847
:10536000446A00230D0003D144EA0241816214E043
:10537000856A04EB15444E1E06E000EB83055B1CBA
:10538000D5F8045104EB1544DBB2B342F5DB00EB76
:10539000810044EA0242C0F80021002070BD00688C
:1053A000416200207047000038B50D4D2978044651
:1053B0004FF47A70B0FBF1F00A490968B1FBF0F0E4
:1053C000FFF75BFC50B9102C08D2002221464FF0A9
:1053D000FF30FFF72BFCAC60002032BD012032BD56
:1053E000000000200C0000202DE9F0410D46804611
:1053F0004FF4FE7008EB00076878092808F10406EE
:1054000048D8DFE800F0697D477947090547582308
:10541000404600F00DF983E0A888002804BFE88822
:10542000002837D1A87800F07F063878032831D0DB
:10543000BE7031464046FFF7F5F9404600F0D6F918
:10544000002E14BF02200120387069E0364C6888B5
:105450002070207802281DDA397802291FD003290C
:1054600018D1010008D102203870002100203060DE
:105470004046FFF75CFC50E0316888424DD0C9B22D
:105480004046FFF754FC217831604046FFF744FC6A
:10549000022842D12946404600F058F940E0010078
:1054A0003BD030600321397001464046FFF734FCA1
:1054B0000228EFD031E0E8880128EBD138780228C3
:1054C00004D00328E6D10122314611E000207060AB
:1054D000012208F108010BE03878801E0128D9D894
:1054E000B968012001B10320B060022208F10C016B
:1054F000404600F058F913E06888012810D107E011
:105500003878801E0128C5D86888012808D1002075
:10551000BA69B860404692689047404600F066F924
:105520000020BDE8F0810000A99F002038B50446A6
:105530004FF4FE7022180D46107803280CD12879FC
:10554000022809DA9269926820469047E88828B9CB
:10555000204600F04BF901E000F0E2F8002032BDF7
:1055600070B504464FF4FE7026180D462878297948
:1055700000F06000202802D100F055F851E0687872
:1055800048B301280FD003284BD13078022810D01F
:10559000032844D1688828B900291EBF80292046E5
:1055A000FFF718F911E03078022802D0032804D060
:1055B00035E0002935D0802915E0688888BB11F0D6
:1055C0007F0004D02046FFF712F900F02CF82046A7
:1055D00000F00CF925E03078022802D0032807D02B
:1055E0001DE011F07F001CD02046FFF7F3F818E013
:1055F000080100F4FE6020440A064EBF00F11405C5
:105600004FF4827285182046FFF7FEF800B10120A2
:10561000286002222946204600F0C5F801E000F08B
:105620007EF8002070BDB269926829462046104776
:1056300038B50D46044669884FF404702218080AEC
:10564000012808D002281FD003282AD0062854D0C9
:10565000072859D060E01268207C1268694690479C
:10566000BDF8001079B1E9880A000CD0BDF800201F
:105670008A4288BF0A46ADF800200146BDF80020E6
:10568000204600F090F831BD207C51680028684623
:1056900004D1896A884702214170E1E7C96A8847D5
:1056A000F9E7C9B2052937D8DFE801F003090F157A
:1056B0001B211268207C526869469047D0E7126827
:1056C000207C926869469047CAE71268207CD268BD
:1056D00069469047C4E71268207C12696946904782
:1056E000BEE71268207C526969469047B8E71268A5
:1056F000207C926969469047B2E7207C60B9516886
:10570000496B68468847ABE7207C28B95168096B2C
:10571000684688470721BFE700F001F831BD2946F8
:10572000204613E00A7802704A784270CB788A7873
:1057300002EB032242804B790A7902EB032282803A
:105740008A79C97902EB0121C180704710B50446FE
:105750008021FFF73FF82046BDE810400021FFF709
:1057600039B800B9704730B50346002400E0641C26
:1057700013F8015B002DFAD12406E30D9B1C138066
:1057800012880A7003224A70022208E010F8013BD6
:10579000D2B28B54521CD2B200238B54521C0378C9
:1057A000002BF3D130BD80B50223C0F8F43100F1F5
:1057B00018031A605A6000E080B513460A460021BB
:1057C000FFF73DF8002002BD80B50323C0F8F43197
:1057D0004FF4847303441A605A6000E080B51346A6
:1057E0000A460021FFF738F8002002BD80B50421E9
:1057F000C0F8F41100230022E1E780B50521C0F8CC
:10580000F41100230022ECE738B5040001D1012097
:1058100032BD00F02EF818B92870204600F029FF9C
:105820001DE0022180F8391001680A6842F0010287
:105830000A600FE00068C16841F00101C1600168C1
:1058400041F0010101600020704703D10A6852084D
:1058500052000A60012180F83910002070470220B0
:105860006870211D206800F019F90120687000207F
:1058700032BD04F138056878704710B504462068D9
:105880000169890715D5C168890712D56FF0020132
:10589000016101212176806910F0030F204602D0BA
:1058A00000F046FF03E000F044FF00F087F800201E
:1058B000207620680169490715D5C168490712D5C6
:1058C0006FF00401016102212176806910F4407FAC
:1058D000204602D000F02CFF03E000F02AFF00F089
:1058E0006DF80020207620680169090715D5C16888
:1058F000090712D56FF00801016104212176C06902
:1059000010F0030F204602D000F012FF03E000F079
:1059100010FF00F053F80020207620680169C906C6
:1059200015D5C168C90612D56FF0100101610821B3
:105930002176C06910F4407F204602D000F0F8FEC6
:1059400003E000F0F6FE00F039F800202076206831
:105950000169C90708D5C168C90705D56FF00101FC
:105960000161204600F0E6FE20680169090608D5BD
:10597000C168090605D56FF080010161204600F07D
:10598000DAFE20680169490608D5C168490605D5CF
:105990006FF040010161204600F0CEFE20680169F1
:1059A00089060AD5C168890607D56FF02001016113
:1059B0002046BDE8104000F0C0BE10BD204600F0FB
:1059C000BDBE0120207002206070704738B500F025
:1059D0005AF801D1022032BDFFF7F3FFDFF8503152
:1059E000286882681A4082600868002837D010282A
:1059F00037D0202837D0302837D040282BD0502817
:105A00001ED0602820D070280BD0B0F5805F03D066
:105A1000B0F5005F0CD02CE028688168C908C90087
:105A20000CE000F02BF82868816841F0770105E070
:105A300000F024F82868816841F48041816018E012
:105A400000F018F8502111E0CA684968286800F091
:105A500098F860210AE000F00DF8402106E00021EE
:105A600004E0102102E0202100E03021286800F04D
:105A70009AF80EE0CA684968286871E0CB684A68FD
:105A80008968286897E0054605F1380420780128E0
:105A90007047012060700020207032BDF0B5254BAA
:105AA0000468254A254D264E264F984218BFB0F16E
:105AB000804F07D0B84218BFB04203D0A84218BFE9
:105AC00090420FD1D1F804C0984224F0700418BF5E
:105AD000B0F1804F4CEA040417D0B8421CBFB0426A
